:020000040800F2
:100000003826002099010008051C0008F119000895
:10001000011C00085D0200087D22000800000000AD
:1000200000000000000000000000000001010008C6
:100030006102000800000000450100080B1D0008D7
:10004000B3010008B3010008B3010008B3010008C0
:10005000B3010008B3010008B3010008B3010008B0
:10006000B3010008B3010008B3010008B3010008A0
:10007000B3010008B3010008B3010008B301000890
:10008000B3010008B3010008B3010008B301000880
:10009000B3010008B3010008B3010008B301000870
:1000A000B3010008B3010008B3010008B301000860
:1000B000B3010008B3010008DD1D0008B30100080A
:1000C000B3010008B3010008B3010008B301000840
:1000D000B30100085D2200086D220008B30100088A
:1000E000B3010008B3010008B3010008DFF80CD029
:1000F00000F0A2F80048004731230008382600200D
:10010000224B19680868B0E8F00F80F30988BFF344
:100110006F8F4FF0000080F311884EF00D0E704786
:100120000000000006480068006880F3088862B696
:1001300061B6BFF34F8FBFF36F8F00DF00BF00BF0B
:1001400008ED00E0EFF30980BFF36F8F0F4B1A68E3
:1001500020E9F00F106008B54FF0500080F31188CF
:10016000BFF34F8FBFF36F8F02F06CFE4FF00000B4
:1001700080F31188BDE8084019680868B0E8F00FFE
:1001800080F30988BFF36F8F704700BF30000020F5
:10019000EFF3058070470000064880470648004797
:1001A000FEE7FEE7FEE7FEE7FEE7FEE7FEE7FEE727
:1001B000FEE7FEE7851D0008ED00000840EA0103A8
:1001C0009B0703D009E008C9121F08C0042AFAD20D
:1001D00003E011F8013B00F8013B521EF9D27047D1
:1001E000D2B201E000F8012B491EFBD27047002279
:1001F000F6E710B513460A4604461946FFF7F0FF26
:10020000204610BD30B505462A460B4612F8010BB4
:1002100013F8014B08B1A042F8D01CB1002802D05D
:100220006D1CF1E7284630BD421C10F8011B002967
:10023000FBD1801A70470000064C074D06E0E068CD
:1002400040F0010394E8070098471034AC42F6D31D
:10025000FFF750FFA8340008C834000800BFFEE7CD
:100260007047704710B500224FF48071074800F0C6
:1002700012FA4FF4FA7000F063F8012211020348F9
:1002800000F009FA642000F05BF810BD000C01409A
:1002900070B50446002594F82100022803D00420FC
:1002A000A063012548E02068006820F00E00216866
:1002B00008602068006820F00100216808601F497C
:1002C0002068884201D1012026E01C4914312068B1
:1002D000884201D110201FE0184928312068884247
:1002E00001D1801518E015493C312068884201D1C0
:1002F000801411E0114950312068884202D14FF436
:10030000803009E00D4964312068884202D14FF401
:10031000801001E04FF080700849083948600120E2
:1003200084F8210000BF002084F8200000BF606B2B
:1003300010B12046616B8847284670BD0800024016
:1003400070B5044600F0AEF906462546681C10B1AB
:1003500004480078054400BF00F0A4F9801BA842BF
:10036000FAD370BD180000202DE9F847034600229B
:1003700094466EE14FF0010808FA02F4D1F80080CB
:1003800008EA0400A0427DD1DFF8DCA2D1F80480A5
:10039000A8EB0A09D0453AD014DCB8F1030F50D0CD
:1003A00009DCB8F1000F31D0B8F1010F1CD0B8F161
:1003B000020F49D120E0B8F1110F18D0B8F1120F97
:1003C00042D11EE0B9F5881F25D006DCB9F5803F83
:1003D00020D0B9F5801F37D11AE0B9F5001F18D029
:1003E000B9F5041F30D117E0D1F80CC02DE0D1F8D9
:1003F0000C8008F1040C28E0D1F80C8008F1080CFE
:1004000023E0D1F80C8008F10C0C1EE000BF00BF07
:1004100000BF00BF00BF00BFD1F80880B8F1000FD7
:1004200002D14FF0040C0BE0D1F80880B8F1010FB5
:1004300003D14FF0080C1C6102E04FF0080C5C6126
:1004400003E04FF0000C00E000BF00BFFF2801D820
:10045000984601E003F104084646FF2802D84FEA17
:10046000820803E0A2F108084FEA88084746D6F858
:1004700000804FF00F0909FA07F928EA09080CFA79
:1004800007F900E088E048EA0908C6F80080D1F8DA
:10049000048008F08058B8F1805F7DD100BFDFF89C
:1004A000CC81D8F8188048F00108DFF8C091C9F86D
:1004B0001880C846D8F8188008F00108CDF80080E8
:1004C00000BF00BF4FEAB9384FEA920958F82950E7
:1004D0004FEA82784FEA18794FF00F0808FA09F8C6
:1004E00025EA0805DFF88881434502D14FF000086E
:1004F00016E0DFF88081434502D14FF001080FE09C
:10050000DFF87481434502D14FF0020808E0DFF8BC
:100510006C81434502D14FF0030801E04FF004081D
:100520004FEA82794FEA197908FA09F848EA05058D
:10053000DFF84C814FEA920948F82950D1F804803D
:1005400008F48038B8F5803F0AD1DFF83881D8F850
:10055000008048EA0008DFF82C91C9F8008009E023
:10056000DFF82081D8F8008028EA0008DFF814912D
:10057000C9F80080D1F8048008F40038B8F5003FCD
:1005800010D1DFF8008108F10408D8F8008048EAAB
:100590000008DFF8F09000E05AE009F10409C9F81A
:1005A00000800DE0DFF8DC8008F10408D8F8008056
:1005B00028EA0008DFF8CC9009F10409C9F80080A6
:1005C000D1F8048008F48018B8F5801F0ED1DFF848
:1005D000B48008F10808D8F8008048EA0008DFF87D
:1005E000A49009F10809C9F800800DE0DFF89480B3
:1005F00008F10808D8F8008028EA0008DFF884909D
:1006000009F10809C9F80080D1F8048008F400183D
:10061000B8F5001F0ED1DFF86C8008F10C08D8F88F
:10062000008048EA0008DFF85C9009F10C09C9F87D
:1006300000800DE0DFF84C8008F10C08D8F800804D
:1006400028EA0008DFF83C9009F10C09C9F800809D
:10065000521CD1F8008028FA02F8B8F1000F7FF49C
:1006600089AEBDE8F88700000000111000100240BC
:1006700000080140000C014000100140001401403E
:100680000800014000040140C2680A400AB141610B
:1006900000E0016170470AB1016101E00B040361F0
:1006A00070470000014800687047000010000020FB
:1006B0000348006803490978084401490860704705
:1006C000100000201800002010B50848006840F015
:1006D000100006490860032000F0AEF80F2000F07B
:1006E00007F800F02BF8002010BD000000200240A9
:1006F00070B504460E4800784FF47A71B1FBF0F003
:100700000C490968B1FBF0F5284600F011FC08B16E
:10071000012070BD102C07D200222146501E00F08F
:100720004DF80548046001E00120F2E70020F0E701
:10073000180000201C0000201400002008B500BF95
:100740001448806940F001001249886108468069B8
:1007500000F00100009000BF00BF00BF0846C06964
:1007600040F08050C8610846C06900F08050009099
:1007700000BF00BF00220F21901E00F01FF800BF35
:100780000549486820F0E06040F00070486000BF14
:1007900008BD00000010024000000140014608466C
:1007A000002809DB00F01F0301229A4043099B0047
:1007B00003F1E023C3F8002100BF70472DE9F05F8B
:1007C00080460D461646002701F05AFD0746394679
:1007D0002A46334601F00700C0F1070ABAF1040FB8
:1007E00002D94FF0040A01E0C0F1070AD14600F136
:1007F000040ABAF1070F02D24FF0000A01E0A0F19B
:10080000030AD4464FF0010A0AFA09FAAAF1010ACA
:100810000AEA020A0AFA0CFA4FF0010B0BFA0CFB77
:10082000ABF1010B0BEA030B4AEA0B0421464046ED
:1008300001F02EFDBDE8F09F00BF00F00702064B5F
:1008400019684FF6FF031940044B0B4343EA02219A
:10085000014B196000BF70470CED00E00000FA0585
:1008600070B504460D460CB9012070BD5A480068A9
:1008700000F00700A8420ED25748006820F0070099
:100880002843554908600846006800F00700A84260
:1008900001D00120E9E7207800F0020002281DD1F4
:1008A000207800F00400042805D14C48406840F44A
:1008B000E0604A494860207800F00800082805D127
:1008C0004648406840F460504449486043484068A6
:1008D00020F0F000A168084340494860207800F00B
:1008E000010078B36068012806D13C48006800F434
:1008F000003090B90120B8E76068022806D1374877
:10090000006800F0007040B90120AEE7334800688D
:1009100000F0020008B90120A7E73048406820F045
:100920000300616808432D494860FFF7BBFE064697
:1009300009E0FFF7B7FE801B41F28831884202D9F7
:10094000032092E707E02548406800F00C0061684A
:10095000B0EB810FEDD12048006800F00700A842FD
:100960000ED91D48006820F0070028431A49086086
:100970000846006800F00700A84201D0012074E793
:10098000207800F00400042807D11448406820F4BF
:10099000E060E168084311494860207800F00800F1
:1009A000082808D10D48406820F46050216940EAC9
:1009B000C1000A49486000F03FF808494968C1F39E
:1009C0000311074A515CC8400649086006480068A0
:1009D000FFF78EFE002048E7002002400010024092
:1009E000603400081C00002014000020014800684A
:1009F000704700001C00002000B5FFF7F7FF044916
:100A00004968C1F30221034A515CC84000BD00009F
:100A1000001002407034000800B5FFF7E7FF0449FA
:100A20004968C1F3C221034A515CC84000BD0000BF
:100A30000010024070340008F0B585B00FF26C0C65
:100A40009CE8E01001A8A0E8E0101CA52D68009526
:100A500000210022002300240020194D696801F0C4
:100A60000C05F5B1042D02D0082D19D101E015486F
:100A700019E001ADC1F38346AC5D01F4803555B199
:100A80000F4D6D68C5F340451DF805200D4D6543BC
:100A9000B5FBF2F302E00C4D04FB05F3184602E04F
:100AA00000BF084800BF00BF05B0F0BD0203040549
:100AB000060708090A0B0C0D0E0F101001020000AA
:100AC0000010024000127A0000093D00F8B504460B
:100AD0000CB90120F8BD207800F00100002878D082
:100AE000F848406800F00C0004280CD0F548406835
:100AF00000F00C00082811D1F248406800F4803062
:100B0000B0F5803F0AD1EF48006800F400300028BB
:100B10005FD0606800285CD10120DBE700BF60681F
:100B2000B0F5803F06D1E748006840F48030E549E1
:100B3000086028E0606858B9E248006820F4803016
:100B4000E04908600846006820F4802008601AE048
:100B50006068B0F5A02F0BD1DA48006840F480201F
:100B6000D84908600846006840F4803008600AE010
:100B7000D448006820F48030D249086008460068F4
:100B800020F48020086000BF606888B1FFF78AFD0C
:100B9000054606E0FFF786FD401B642801D90320C7
:100BA00098E7C848006800F400300028F2D010E050
:100BB000FFF778FD054606E0FFF774FD401B64284B
:100BC00001D9032086E7BF48006800F40030002800
:100BD000F2D1207800F00200022857D1B9484068CD
:100BE00000F00C0050B1B748406800F00C00082835
:100BF00018D1B448406800F4803098B9B148006812
:100C000000F0020020B12069012801D0012061E735
:100C1000AC48006820F0F800616940EAC100A949C9
:100C2000086033E02069E8B10120A7490860FFF7B8
:100C300039FD054606E0FFF735FD401B022801D9C6
:100C4000032047E79F48006800F002000028F2D028
:100C50009C48006820F0F800616940EAC1009949A9
:100C6000086013E0002098490860FFF71BFD054667
:100C700006E0FFF717FD401B022801D9032029E7F2
:100C80009048006800F002000028F2D1207800F0BF
:100C9000080008282DD1A069B8B101208B4908604F
:100CA000FFF700FD054606E0FFF7FCFC401B0228AD
:100CB00001D903200EE78348406A00F002000028B3
:100CC000F2D0012000F0A0FF13E000207F4908606F
:100CD000FFF7E8FC054606E0FFF7E4FC401B0228AE
:100CE00001D90320F6E67748406A00F002000028A8
:100CF000F2D1207800F00400042873D10027714855
:100D0000C06900F0805070B900BF6E48C06940F003
:100D100080506C49C8610846C06900F0805000905E
:100D200000BF00BF01276A48006800F48070B0B9B6
:100D30006748006840F4807065490860FFF7B2FCBE
:100D4000054606E0FFF7AEFC401B642801D90320EE
:100D5000C0E65F48006800F480700028F2D000BF51
:100D6000E068012806D15748006A40F00100554963
:100D7000086227E0E06858B95248006A20F0010094
:100D8000504908620846006A20F00400086219E031
:100D9000E06805280BD14B48006A40F0040049493F
:100DA00008620846006A40F0010008620AE045480F
:100DB000006A20F00100434908620846006A20F0FA
:100DC0000400086200BFE068A0B1FFF76BFC0546B5
:100DD00009E0FFF767FC401B41F28831884202D9E5
:100DE000032077E622E03748006A00F0020000287E
:100DF000EFD012E0FFF756FC054608E0FFF752FC83
:100E0000401B41F28831884201D9032062E62D4817
:100E1000006A00F002000028F0D1012F05D1294816
:100E2000C06920F080502749C86100BFE069C8B39D
:100E30002448406800F00C00082860D0E0690228CF
:100E400048D1002020490866FFF72CFC054606E043
:100E5000FFF728FC401B022801D903203AE6194875
:100E6000006800F000700028F2D1206AB0F5803FE1
:100E700007D11448406820F40030A16808431149A4
:100E80004860D4E9080108430E49496821F4741107
:100E900008430C49486001200B490866FFF702FC33
:100EA000054607E03DE0FFF7FDFB401B022801D9A6
:100EB00003200FE60348006800F000700028F2D01D
:100EC0002FE0000000100240000042428004424235
:100ED00000700040002014490866FFF7E3FB054658
:100EE00006E0FFF7DFFB401B022801D90320F1E5F4
:100EF0000E48006800F000700028F2D111E0E069AF
:100F0000012800D1E6E50948466806F48031206AE8
:100F1000814204D106F47011606A814201D001203F
:100F2000D8E50020D6E50000000042420010024053
:100F300070B504462546681EB0F1807F01D30120BC
:100F40000FE0681E4FF0E02148610F214FF0FF30A5
:100F500001F09EF900204FF0E02188610720086130
:100F6000002070BD7047704710B5024600BF92F870
:100F70003C00012801D1022010BD012082F83C0074
:100F800000BF022082F83D00106843681068846842
:100F900023F070030868034324F080044868044386
:100FA0001068436010688460012082F83D0000BF33
:100FB000002082F83C0000BF00BFDDE710B504460A
:100FC0000CB9012010BD94F83D0028B9002084F828
:100FD0003C00204600F00CF8022084F83D00211D62
:100FE000206800F003FF012084F83D000020E9E7BD
:100FF00038B504460D492068884215D100BF0C4819
:10100000C06940F004000A49C8610846C06900F0A0
:101010000400009000BF00BF002205211E20FFF742
:10102000CDFB1E20FFF7BAFB38BD000000080040D2
:101030000010024001460868C06840F001000B68DB
:10104000D8600868806800F00702062A05D00868A2
:10105000006840F001000B681860002070472DE91F
:10106000F04104460D4600BF94F83C00012802D12F
:101070000220BDE8F081012084F83C0000BF02207E
:1010800084F83D002068866826F0770626F47F46BF
:10109000206886602868502833D00CDC202850D087
:1010A00004DC00284BD0102851D149E0302849D029
:1010B00040284CD139E060282DD0702807D0B0F5F9
:1010C000805F03D0B0F5005F41D10DE040E0D5E98D
:1010D00002136A68206800F0C3FE2068866846F044
:1010E00077062068866033E0D5E902136A682068D5
:1010F00000F0B6FE2068806840F480402168886077
:1011000026E0EA686968206800F0BEFE5021206889
:1011100000F0B1FE1CE0EA686968206800F0C7FED4
:101120006021206800F0A7FE12E0EA686968206884
:1011300000F0AAFE4021206800F09DFE08E000BFFC
:1011400000BF00BF2968206800F095FE00E000BFE6
:1011500000BF012084F83D0000BF002084F83C005F
:1011600000BF00BF85E7704710B5044620680069DE
:10117000C0F34000D8B12068C068C0F34000B0B1EF
:101180006FF00200216808610120207720688069E3
:1011900000F0030018B12046FFF7E5FF05E0204608
:1011A00000F0ADF8204600F0ABF800202077206872
:1011B0000069C0F38000D8B12068C068C0F3800027
:1011C000B0B16FF004002168086102202077206828
:1011D000806900F4407018B12046FFF7C4FF05E0B5
:1011E000204600F08CF8204600F08AF80020207796
:1011F00020680069C0F3C000D8B12068C068C0F39F
:10120000C000B0B16FF008002168086104202077A9
:101210002068C06900F0030018B12046FFF7A3FF63
:1012200005E0204600F06BF8204600F069F8002049
:10123000207720680069C0F30010D8B12068C0682A
:10124000C0F30010B0B16FF01000216808610820F1
:1012500020772068C06900F4407018B12046FFF77D
:1012600082FF05E0204600F04AF8204600F048F8EA
:10127000002020772068006900F0010058B1206844
:10128000C06800F0010030B16FF001002168086112
:10129000204600F037F820680069C0F3C01058B14C
:1012A0002068C068C0F3C01030B16FF080002168C2
:1012B00008612046FFF756FE20680069C0F38010E1
:1012C00058B12068C068C0F3801030B16FF04000A2
:1012D00021680861204600F011F920680069C0F318
:1012E000401058B12068C068C0F3401030B16FF0B2
:1012F0002000216808612046FFF735FE10BD7047C9
:101300007047000070B504460025002661488442FD
:101310007ED161480068401C5F49086067E00DE0CD
:101320005E4802880088401C5C4B18805C4811189D
:101330004FF47A7301225B4800F0EEFA57480088B8
:10134000594909888842EBDB4FF47A73022257A18E
:10135000544800F0E1FA56A000F0DCFF20B1012271
:1013600051035448FFF797F953A000F0D3FF20B181
:10137000012251034F48FFF78EF950A000F0CAFF39
:1013800020B10122F0214E48FFF785F94DA000F071
:10139000C1FF50B1012230214948FFF77CF90122F9
:1013A00040F201114648FFF776F948A000F0B2FF7D
:1013B00020B1012230214248FFF76DF945A000F02D
:1013C000A9FF28B1012240F201113D48FFF763F95E
:1013D00042A000F09FFF50B1002240F2F1113848C6
:1013E000FFF759F9002250213E48FFF754F92B48E6
:1013F00000882D490988884291DB284800882A49BD
:10140000098888420EDB002024490880264900E034
:101410003FE00880344800F073F801222049324848
:1014200000F014FA04E0002228466D1C2F490A54EB
:101430002E48405D0028F6D112E02D480288008831
:10144000401C2B4B18802B4811184FF47A73012243
:10145000254800F061FA4FF400511648FFF714F9DF
:1014600023480088244909888842E6DB2048008810
:101470002149098888420CDB00201D4908801E494B
:101480000880084800F03CF801221A49054800F09D
:10149000DDF970BD9000002028000020240000200D
:1014A000A403002010010020200000200D0A0000ED
:1014B0004C454400001001404F464600474F000095
:1014C000000801404C4546540000000053484F546A
:1014D000000000004241434B0000000053544F50B5
:1014E00000000000000C0140D00000204413002048
:1014F00026000020740B0020220000207047704757
:1015000010B504462068C06820F490702168C86057
:101510002068406920F00100216848612068406926
:1015200000F04000D8B12068406920F040002168F8
:101530004861606B50B10F48616B4863606BFEF7A8
:10154000A7FEA0B1606B416B884710E00020E085EA
:10155000202084F83A002046FFF7D1FF07E0002062
:10156000E085202084F83A002046FFF7C8FF0020DD
:1015700010BD0000EB1E0008704700002DE9F04789
:101580000446206805682068C668206847694FF0EF
:101590000008C14605F00F08B8F1000F0AD105F0A8
:1015A000200038B106F0200020B1204600F0C9FC30
:1015B000BDE8F087B8F1000F6DD007F0010018B951
:1015C00006F49070002866D005F0010030B106F4F2
:1015D000807018B1E06B40F00100E06305F004009A
:1015E00030B107F0010018B1E06B40F00200E06399
:1015F00005F0020030B107F0010018B1E06B40F0D7
:101600000400E06305F0080030B107F0010018B1F4
:10161000E06B40F00800E063E06B68B305F0200089
:1016200028B106F0200010B1204600F08AFC2068A6
:101630004069C0F38019E06B00F0080010B9B9F1FF
:10164000000F22D0204600F05CFC2068406900F0CA
:101650004000B0B12068406920F040002168486136
:10166000606B50B11748616B4863606BFEF710FE0A
:1016700010B1606B416B88470CE02046FFF77CFFA0
:1016800008E02046FFF778FF04E02046FFF774FFEC
:101690000020E0638CE705F0800030B106F08000A8
:1016A00018B1204600F070FD82E705F0400030B12F
:1016B00006F0400018B1204600F033FC78E700BF88
:1016C00076E70000D71E000810B504460CB90120CB
:1016D00010BDA06900B100E000BF94F8390028B93E
:1016E000002084F83800204600F028F8242084F8F0
:1016F00039002068C06820F400502168C860204686
:1017000000F072FC2068006920F4904021680861B4
:101710002068406920F02A00216848612068C0687C
:1017200040F400502168C8600020E063202084F865
:10173000390084F83A000020CAE7000010B586B0EE
:101740000446002002900390049005903B492068D5
:10175000884237D100BF3A48806940F48040384918
:1017600088610846806900F48040019000BF00BF96
:1017700000BF0846806940F004008861084680691F
:1017800000F00400019000BF00BF48150290022045
:1017900003900320059002A92A48FEF7E5FD4FF4C7
:1017A0008060029000200390049002A92548FEF773
:1017B000DBFD002205212520FFF700F82520FEF79C
:1017C000EDFF39E020492068884235D100BF1C4830
:1017D000C06940F400301A49C8610846C06900F485
:1017E0000030019000BF00BF00BF0846806940F094
:1017F000040088610846806900F00400019000BF81
:1018000000BF04200290022003900320059002A94B
:101810000C48FEF7A9FD08200290002003900490D8
:1018200002A90848FEF7A0FD002205212620FEF7A8
:10183000C5FF2620FEF7B2FF06B010BD00380140FC
:1018400000100240000801400044004010B503466B
:1018500093F83A0020282FD101B10AB9012010BD18
:1018600000BF93F83800012801D10220F7E70120DA
:1018700083F8380000BF99629A85DA850020D86322
:10188000222083F83A0000BF002083F8380000BF10
:101890001868C06840F480701C68E060186840698F
:1018A00040F001001C6860611868C06840F02000CA
:1018B0001C68E0600020D2E70220D0E710B50446A3
:1018C0000F4884420BD10F480088401C80B20D4A5B
:1018D00010800D4A811801220948FFF7B7FF0B4815
:1018E00084420BD10A480088401C80B2084A10800C
:1018F000084A811801220548FFF7A8FF10BD000023
:10190000D000002020000020A403002010010020AF
:1019100022000020740B00202DE9F84304460D46F8
:1019200016461F464FF0000994F8390020285CD174
:1019300005B116B90120BDE8F88300BF94F838005E
:10194000012801D10220F6E7012084F8380000BF09
:101950000020E063212084F83900FEF7A3FE8146D1
:10196000A684E6842BE0E08C401EE084A068B0F5FD
:10197000805F16D14B46002280212046009700F060
:1019800037FC08B10320D6E7A846B8F80000C0F33A
:10199000080021684860206908B9AD1C0FE06D1C83
:1019A0000DE04B46002280212046009700F020FCED
:1019B00008B10320BFE715F8010B21684860E08CEF
:1019C0000028D0D14B46002240212046009700F04D
:1019D0000FFC08B10320AEE7202084F8390000BFD7
:1019E000002084F8380000BFA5E70220A3E7704775
:1019F00000BFFEE700B585B0002001900290039083
:101A0000049000BF4348806940F01000414988615C
:101A10000846806900F01000009000BF00BF00BFC2
:101A20000846806940F0200088610846806900F01F
:101A30002000009000BF00BF00BF0846806940F052
:101A4000040088610846806900F00400009000BF2F
:101A500000BF00BF0846806940F008008861084662
:101A6000806900F00800009000BF00BF00224FF422
:101A700000512948FEF70FFE002248F2F1112748D5
:101A8000FEF709FE00224FF45E712548FEF703FEC3
:101A90004FF400500190012002900020039002209A
:101AA000049001A91C48FEF75FFC40F2F110019080
:101AB00001200290002003900220049001A9174801
:101AC000FEF752FC4FF400400190012002900020EC
:101AD00003900320049001A91048FEF745FC28203C
:101AE000019001200290002003900320049001A99E
:101AF0000B48FEF739FC4FF454700190012002901E
:101B0000002003900220049001A90548FEF72CFC58
:101B100005B000BD00100240001001400008014067
:101B2000000C014000B587B00020039004900590A0
:101B3000069001900290144814490860C82048603B
:101B400000211248816040F6B831C1600021016176
:101B50008161FFF733FA08B1FEF783FB4FF4805041
:101B6000039003A90948FFF77AFA08B1FEF779FB59
:101B700000200190029001A90448FFF7F5F908B18F
:101B8000FEF76FFB07B000BD00080040900000208A
:101B900010B50B480B4908604FF4E1304860002154
:101BA00008488160C16001610C21416100218161AF
:101BB000C161FFF789FD08B1FEF753FB10BD0000BE
:101BC00000380140D000002010B50B480B490860D8
:101BD0004FF4E1304860002108488160C160016134
:101BE0000C21416100218161C161FFF76DFD08B1E8
:101BF000FEF737FB10BD000000440040100100203C
:101C000000BFFEE77047000008B508490968C90829
:101C10004FF47A72B1FBF2F14143009100BF00BF73
:101C200000994A1E00920029F9D108BD1C0000202D
:101C30002DE9F04105460E461746002400BF22E07C
:101C400000F04AFB2846FEF7EFFA1FFA80F84FF63D
:101C5000FF73424629460E48FFF75EFE4FF6FF73BC
:101C600002220CA10A48FFF757FE3846FEF768FB30
:101C7000304600F04FFB10B10120BDE8F081601C40
:101C8000C4B2601CC4B2032CDADB0020F5E700000C
:101C9000D00000200D0A000000BF012000F01BFC56
:101CA000FBE7000000BF00224FF480710748FEF7F9
:101CB000F2FC4FF47A70FEF743FB01221102034855
:101CC000FEF7E9FCC820FEF73BFBECE7000C014007
:101CD00000BF00224FF400710848FEF7DCFC4FF40F
:101CE0007A70FEF72DFB012251020448FEF7D3FC67
:101CF0004FF47A70FEF724FBEBE70000000C014084
:101D000000BF012000F0E7FBFBE710B5FEF7D0FCB9
:101D100001F038FA012801D001F08CF910BD00B5AE
:101D20008FB0282105A8FEF762FA14216846FEF755
:101D30005EFA012005900004069000200790012023
:101D4000099002200C90C1030D914FF4E0110E9107
:101D500005A8FEF7BBFE08B1FEF783FA0F2000903E
:101D600002200190002002904FF480600390002038
:101D7000049002216846FEF773FD08B1FEF771FA80
:101D80000FB000BD1148006840F001000F49086025
:101D9000084640680E4908400C49486008460068FB
:101DA0000C490840094908600846006820F4802072
:101DB00008600846406820F4FE0048604FF41F00A9
:101DC0008860C803044908607047000000100240A2
:101DD0000000FFF8FFFFF6FE08ED00E010B5024836
:101DE000FFF7C2F910BD00009000002010B5026896
:101DF000184B984208D0B0F1804F05D0164B98424E
:101E000002D0164B984203D122F070024B681A435D
:101E1000104B984208D0B0F1804F05D00E4B98423D
:101E200002D00E4B984203D122F44072CB681A4381
:101E300022F080034C6943EA040202608B68C362AB
:101E40000B688362034B984201D10B690363012342
:101E5000436110BD002C0140000400400008004018
:101E600030B50C46816821F47F4142EA03252543C1
:101E70002943816030BD0A46816821F0700142F03B
:101E8000070319438160704730B50B461446026A58
:101E9000056A25F001050562816921F0F00141EA3A
:101EA000041122F00A021A438161026230BD30B58A
:101EB0000B461446056A25F0100505628169026A21
:101EC00021F4704141EA043122F0A00242EA0312F7
:101ED0008161026230BD70B505466C6A0020E08504
:101EE000E0842046FFF748FB70BD70B505466C6A7C
:101EF0000020E085202084F83A002046FFF7FFFA12
:101F000070BD0168C96821F490710268D1600168F0
:101F1000496921F0010102685161202180F83A10DD
:101F2000704710B504462068C06820F04000216862
:101F3000C860202084F839002046FFF758FD0020B3
:101F400010BD70B5044694F83A0022284AD1A06822
:101F5000B0F5805F13D1A56A206940B92068406858
:101F6000C0F308002880A06A801CA06219E02068E5
:101F70004068C0B22880A06A401CA06211E02069BD
:101F800038B920684068C1B2A26A501CA0621170C2
:101F900007E02068406800F07F01A26A501CA06240
:101FA0001170E08D401E80B2E085C8B92068C0681D
:101FB00020F020002168C8602068C06820F480708C
:101FC0002168C8602068406920F0010021684861EC
:101FD000202084F83A002046FFF770FC002070BDF6
:101FE0000020FCE70220FAE770B504462168096981
:101FF00021F44051E2681143226811612269A1680D
:102000001143626941EA02052168C96841F20C6224
:10201000914329432268D1602168496921F44071C4
:10202000A269114322685161564A2168914254D1F4
:10203000FEF7F2FC00EBC00101EB001162689200B8
:10204000B1FBF2F100EBC00202EB001263689B00EF
:10205000B2FBF3F26423B2FBF3F202EBC20303EB35
:102060000212A1EB8201322202EB01116422B1FBC8
:10207000F2F101F0F00100EBC00202EB0012636824
:102080009B00B2FBF3F26423B2FBF3F201EB02120A
:1020900000EBC00101EB001163689B00B1FBF3F1A1
:1020A00000EBC00303EB00136668B600B3FBF6F366
:1020B0006426B3FBF6F303EBC30606EB0313A1EBB5
:1020C0008301322303EB01116423B1FBF3F101F02F
:1020D0000F0111442268916053E0FEF78DFC00EB84
:1020E000C00101EB001162689200B1FBF2F100EB5C
:1020F000C00202EB001263689B00B2FBF3F26423A0
:10210000B2FBF3F202EBC20303EB0212A1EB82017A
:10211000322202EB01116422B1FBF2F101F0F00175
:1021200000EBC00202EB001263689B00B2FBF3F20B
:102130006423B2FBF3F201EB021200EBC00101EBEE
:10214000001163689B00B1FBF3F100EBC00303EBEC
:1021500000136668B600B3FBF6F36426B3FBF6F330
:1021600003EBC30606EB0313A1EB8301322303EB5E
:1021700001116423B1FBF3F101F00F011144226856
:10218000916070BD00380140014691F83900212866
:102190002CD18868B0F5805F0FD10A6A1088C0F32F
:1021A00008000B685860086918B9086A801C086242
:1021B00009E0086A401C086205E00B6A581C0862C6
:1021C00018780B685860C88C401E80B2C88458B913
:1021D0000868C06820F080000B68D8600868C06894
:1021E00040F040000B68D860002070470220FCE7F8
:1021F0002DE9F04104460D4617469846069E21E01B
:10220000701CF8B12EB1FEF74DFAA0EB0800B042F9
:1022100018D92068C06820F4D0702168C860206890
:10222000406920F0010021684861202084F83900CD
:1022300084F83A0000BF002084F8380000BF032073
:10224000BDE8F081206800682840A84201D1012043
:1022500000E00020B842D3D00020F1E710B50248DA
:10226000FFF78CF910BD0000D000002010B5024827
:10227000FFF784F910BD00001001002000BFFEE749
:1022800002480068C0F30220704700000CED00E037
:1022900010B5002804DB0A07130E054A135406E0A4
:1022A0000A07140E034A00F00F031B1FD45410BD7D
:1022B00000E400E018ED00E002E008C8121F08C1C9
:1022C000002AFAD170477047002001E001C1121FB7
:1022D000002AFBD17047000010B5002404E0002064
:1022E00009490855601C84B2B4F5FA6FF7DB002089
:1022F000064908800648FFF703F90122024904480D
:10230000FFF7A4FA10BD0000A40300202000002065
:10231000D000002070B5044621460448FDF772FF46
:1023200005460DB1012070BD0020FCE7A40300208C
:102330009CB000BF00BFFEF7C7F9FFF7F0FCFFF746
:1023400059FBFFF725FCFFF73FFCFFF7EBFB0122F2
:1023500040494148FFF77AFA012240494048FFF7D7
:1023600075FA4048FEF766FE00F0B2FD10F1030F6B
:1023700015D010F1020F0AD0B0F1FF3F17D14FF680
:10238000FF730D2238A13648FFF7C6FA20E04FF65A
:10239000FF73122238A13248FFF7BEFA18E04FF659
:1023A000FF730E2239A12E48FFF7B6FA10E04FF660
:1023B000FF730E2239A12A48FFF7AEFA002402E08B
:1023C000FDF750FF00BF201E04F10104F8D100BF4B
:1023D00000BF002240F2F1113448FEF75CF9002200
:1023E00050213348FEF757F91C22324915A8FDF752
:1023F000E5FE002115A800F07FF82F4908601C2297
:102400002C491C310EA8FDF7D9FE00210EA800F0C2
:1024100073F82A4908601C222649383107A8FDF7BD
:10242000CDFE002107A800F067F8254908601C22AE
:10243000204954316846FDF7C1FE0021684600F08E
:102440005BF82049086000F052F802E06420FDF7D4
:1024500077FFFBE7A4030020D0000020740B0020CE
:1024600010010020900000206174D6B8C1EEB4EDD8
:10247000CEF3200D0A000000B9A4D7F7C4A3CABD4B
:10248000C9E8D6C3B4EDCEF30D0A0000CEDEB7A87E
:10249000C1ACBDD3776966690D0A000077696669CA
:1024A000C1ACBDD3B3C9B9A60D0A000000080140F4
:1024B000000C0140F0330008000000200400002060
:1024C000080000200C00002001460020842901D0D3
:1024D000CA1C1044704770B5044625460DB1294604
:1024E00000E00121084600F01FFC002070BD10B57F
:1024F00000F048FC002010BD7FB504460D46606921
:1025000098B1A06988B1B4F90800FFF7DDFF06466D
:10251000D4E90510CDE9006102902B462269D4E987
:10252000001000F0D3FD039013E0B4F90800FFF7AA
:10253000CBFF064603A8CDE90060238A9AB22B465A
:10254000D4E9001000F090FD012802D0002004B072
:1025500070BD0398FBE700002DE9F04105460E46EB
:102560001C4807681C480068001D00F0E1FA50B9DB
:102570001948006890F82C10012088401749096814
:10258000814316480160681C38B936B112480168A9
:10259000091D134800F016FB1AE07C190E4800686C
:1025A0004460BC4207D20C480168091D0D48006810
:1025B00000F0EEFA0CE008480168091D0A480068BE
:1025C00000F0E6FA09480068844201D20748046036
:1025D000BDE8F081440000203000002048000020C9
:1025E0002016002038000020340000206000002069
:1025F00010B5044600F0F2FA23480068401C224956
:1026000008602248006840B9204804600846006815
:1026100001280DD100F03AF90AE01D48006838B9E8
:102620001A480068C06AE16A884201D81748046005
:1026300018480068401C1749086094F82C100120C5
:10264000884015490968084313490860E16A01EBAD
:102650008101124A02EB8100211D00F0B3FA00F063
:10266000E7FA0B48006868B108480068C06AE16A88
:10267000884207D24FF0805009490860BFF34F8F5E
:10268000BFF36F8F10BD000040000020300000201D
:102690004C0000205C000020480000204415002071
:1026A00004ED00E010B516E000F098FA0C48C068A0
:1026B000C468201D00F03CFA0A480068401E094921
:1026C000086009480068401E0749086000F0B0FA39
:1026D000204600F00BF8044800680028E4D110BD43
:1026E0000C160020400000203C00002010B50446DD
:1026F00094F8510030B9206B00F0B8FA204600F091
:10270000B5FA1AE094F85100012803D1204600F0F0
:10271000ADFA12E094F85100022801D1012000E046
:10272000002050B900BF502080F31188BFF34F8FB5
:10273000BFF36F8F00BF00BFFEE710BD30B54FF491
:102740004063174800F007042CB1C01D20F00700BB
:10275000134C041B1B1B0246124C22600024114D1B
:102760006C60D018083820F007000F4C206000245F
:102770000D4D2D686C600C4D2D682C601146441A6F
:102780004C60094C24680C60084D4C682C60084D66
:102790004C682C604FF00044064D2C6030BD0000AA
:1027A000341600206C000020740000207C00002003
:1027B000780000208000002000BFFFF773FF06486C
:1027C00000680128F9D94FF0805004490860BFF330
:1027D0004F8FBFF36F8FF0E74415002004ED00E04A
:1027E0002DE9FF5F81460F469246DDE90E6B109C96
:1027F000AAF10100216B01EB800828F0070808F01E
:10280000070008B9012000E0002050B900BF5020A7
:1028100080F31188BFF34F8FBFF36F8F00BF00BFEE
:10282000FEE7002507E0795D04F134004155785D4D
:1028300000B902E06D1C102DF5D300BF002143202C
:102840000155072E00D30626E66266640020A064C8
:10285000201D00F09AF904F1180000F096F92461A7
:10286000C6F10700A06164620020E06484F85000B3
:1028700049464046039A00F049F92060BBF1000F39
:1028800001D0CBF80040BDE8FF9F000010B5002448
:1028900007E004EB84010F4A02EB810000F068F9C5
:1028A000641C072CF5D30C4800F062F90B4800F0CB
:1028B0005FF90B4800F05CF90A4800F059F90A4842
:1028C00000F056F9044809490860044808490860BE
:1028D00010BD000044150020D0150020E415002094
:1028E000F81500200C1600202016002034000020CF
:1028F0003800002010B50146164800E00068036863
:102900008B42FBD30246436813448B4204D1436895
:102910004C682344436001460A464B6813440468EC
:10292000A34211D10C4C03682468A34208D04B6821
:102930000468646823444B6003681B680B6005E00F
:10294000054B1B680B6001E003680B60884200D0F8
:10295000016010BD6C000020740000200A49096865
:10296000096809B9012100E0002121B14FF0FF31D0
:10297000064A116006E004490968C968C868034A44
:1029800041681160704700003400002060000020A2
:102990000E480068401C08B9012000E0002050B932
:1029A00000BF502080F31188BFF34F8FBFF36F8FAC
:1029B00000BF00BFFEE700BF502080F31188BFF3C7
:1029C0004F8FBFF36F8F00BF00BFFEE78400002072
:1029D0002DE9F04104464FF0000800F02BFA46487C
:1029E000006808B9FFF7AAFE4448006820400028A4
:1029F0006BD1D4B1083404F00700B0B104F0070083
:102A0000C0F10800044404F0070008B9012000E008
:102A1000002050B900BF502080F31188BFF34F8FC2
:102A2000BFF36F8F00BF00BFFEE7002C4DD03448CE
:102A30000068844249D8334E3046056801E02E468E
:102A40002D686868A04202D228680028F7D12A4879
:102A50000068854239D0306800F108082868306085
:102A60006868001B102819D92F1907F0070008B94A
:102A7000012000E0002050B900BF502080F31188F1
:102A8000BFF34F8FBFF36F8F00BF00BFFEE76868D3
:102A9000001B78606C603846FFF72CFF18496868A7
:102AA0000968081A16490860084600681649096846
:102AB000884203D212480068134908600F496868C9
:102AC0000968084368600020286000F00FFC08F0E7
:102AD000070008B9012000E0002050B900BF5020D5
:102AE00080F31188BFF34F8FBFF36F8F00BF00BF1C
:102AF000FEE74046BDE8F081740000208000002021
:102B0000780000206C0000207C000020001F4FF0A7
:102B100080730360001F21F001030360001F034B5B
:102B200003601438026020387047000091290008C3
:102B300001460A69D1E901309860D1E90103586082
:102B40005068884201D18868506000200861106890
:102B5000401E106010687047034B0360034B0B600E
:102B6000802313607047000050010020A401002062
:102B700000F1080141604FF0FF31816000F1080170
:102B8000C16001610021016070470021016170474F
:102B900010B502460B685C1C0CB9106907E002F125
:102BA000080000E04068446824689C42FAD9446800
:102BB0004C604C68A160886041600A611468641CC4
:102BC000146010BD42684A6093688B6093685960D6
:102BD0009160086103685B1C0360704700BF502070
:102BE00080F31188BFF34F8FBFF36F8F00BF0E4884
:102BF0000068401C0C49086008460068012812D192
:102C00000A480068C0B208B9012000E0002050B9AD
:102C100000BF502080F31188BFF34F8FBFF36F8F39
:102C200000BF00BFFEE770478400002004ED00E015
:102C30000D48006850B900BF502080F31188BFF3E1
:102C40004F8FBFF36F8F00BF00BFFEE706480068DD
:102C5000401E054908600846006820B9002080F33E
:102C6000118800BF00BF70478400002070B5064681
:102C70003546002E3FD0083D2C461F496068096844
:102C8000084008B1012000E0002050B900BF5020EA
:102C900080F31188BFF34F8FBFF36F8F00BF00BF6A
:102CA000FEE7206808B9012000E0002050B900BF0D
:102CB000502080F31188BFF34F8FBFF36F8F00BF99
:102CC00000BFFEE70C4960680968084098B12068B9
:102CD00088B90949606809688843606000F0AAF80B
:102CE0000649606809680844044908602046FFF7FF
:102CF00001FE00F0FBFA70BD80000020780000208B
:102D000000204FF0E02108618861064800684FF418
:102D10007A71B0FBF1F0401E4FF0E02148610720CE
:102D2000086170471C00002070B504460025D4B12E
:102D30001248006808B9012000E0002050B900BF27
:102D4000502080F31188BFF34F8FBFF36F8F00BF08
:102D500000BFFEE700F06EF800212046FFF7FCFB05
:102D600000F0C4FA05463DB94FF0805004490860B0
:102D7000BFF34F8FBFF36F8F70BD0000680000205E
:102D800004ED00E010B586B000200590049003AA81
:102D900004A905A8FFF7E0FE0022DDE904101346B0
:102DA000CDE9002102901CA11D48039A00F08EF984
:102DB0001C4908600846006808B1012400E00024AE
:102DC000012C15D100BF502080F31188BFF34F8F25
:102DD000BFF36F8F00BF4FF0FF3013490860012031
:102DE0001249086000201249086000F0A7F810E0BE
:102DF000601C08B1012000E0002050B900BF502045
:102E000080F31188BFF34F8FBFF36F8F00BF00BFF8
:102E1000FEE706B010BD000049444C45000000002C
:102E2000B927000864000020600000204C0000204A
:102E30004400002002480068401C014908607047B7
:102E4000680000201D48006818B101201C49086076
:102E500032E000201A4908601A480068B0FA80F091
:102E6000C0F11F0101EB8100174A52F8200008B1A0
:102E7000012000E0002050B900BF502080F31188ED
:102E8000BFF34F8FBFF36F8F00BF00BFFEE701EBB3
:102E900081020D4B03EB820042685268426000F1F0
:102EA00008024368934202D1426852684260426815
:102EB000D268064B1A6000BF70470000680000200F
:102EC000540000204800002044150020300000205D
:102ED00010B5002464220FA10FA0FEF7A9FE04463E
:102EE00014B94FF0FF3010BD64220AA10BA0FEF709
:102EF0009FFE044614B96FF00100F4E7C82205A153
:102F000009A0FEF795FE044614B96FF00200EAE747
:102F10000120E8E74F4B00004154000041542B438F
:102F200049504D55583D310041542B43495053456C
:102F3000525645523D312C38303830001CB5384996
:102F4000084600780190FF200A4610700846007875
:102F500000909DF8000000F0F0009DF800209042E5
:102F600001D1012000E0002050B900BF502080F3C3
:102F70001188BFF34F8FBFF36F8F00BF00BFFEE715
:102F80009DF8000000F05000264A10700720264AE5
:102F9000106009E024480068401E234A10609DF834
:102FA00000004006000E00909DF8000000F0800038
:102FB0008028EFD01C480068C0F10700042801D128
:102FC000012000E0002050B900BF502080F311889C
:102FD000BFF34F8FBFF36F8F00BF00BFFEE71248F4
:102FE00000680002104A10601046008800F4E0609B
:102FF00010600B4A019810700C48006840F4700093
:103000000A4908600846006840F070400860FFF711
:1030100077FE002006490860FDF784F800201CBDFB
:1030200000E400E0880000208C00002020ED00E09B
:103030008400002010B500BF502080F31188BFF33A
:103040004F8FBFF36F8F00BF00F0ACF818B14FF097
:1030500080500449086000BF002080F3118800BF41
:1030600010BD000004ED00E02DE9FF4F85B0804663
:1030700089461746DDE912ABB800FFF7A9FC064602
:1030800056B15420FFF7A4FC04460CB1266304E0BB
:103090003046FFF7EBFD00E000248CB1002084F8FF
:1030A0005100CDE900ABCDE902403A4649464046E1
:1030B000089BFFF795FB2046FFF79AFA012501E0F0
:1030C0004FF0FF35284609B0BDE8F08F2DE9F04FED
:1030D00085B00746884691469A46DDE90EB6109CB3
:1030E0000EB1012000E0002050B900BF502080F355
:1030F0001188BFF34F8FBFF36F8F00BF00BFFEE794
:103100000CB1012000E0002050B900BF502080F336
:103110001188BFF34F8FBFF36F8F00BF00BFFEE773
:10312000542003900398542801D1012000E000208E
:1031300050B900BF502080F31188BFF34F8FBFF309
:103140006F8F00BF00BFFEE7B4B1AEB125462C467D
:103150002E63022085F85100002004A953464A46F8
:10316000CDE900B1CDE9025041463846FFF738FBC2
:103170002846FFF73DFA01E000200490049805B0CE
:10318000BDE8F08F0549096809B9012005E0044947
:10319000096809B9022000E0002070474C000020B7
:1031A000680000202DE9F0414FF000084448006815
:1031B000002877D143480068451C4248056015BB8C
:1031C00041480068006808B9012000E0002050B9BB
:1031D00000BF502080F31188BFF34F8FBFF36F8F74
:1031E00000BF00BFFEE73848076838480068364926
:1031F00008603648076036480068401C344908605B
:10320000FFF7ACFB00BF3348006885423CD300BFEA
:103210002D480068006808B9012000E0002020B1B6
:103220004FF0FF302B4908602DE027480068C06848
:10323000C4686668B54202D22648066023E0201DB5
:10324000FFF776FCA06A18B104F11800FFF770FCD4
:1032500094F82C10012088401F49096808431E4932
:103260000860E16A01EB81011C4A02EB8100211D2B
:10327000FFF7A8FC1A49E06A0968C96A8842C7D3FF
:103280004FF00108C4E700BF15480068C06A00EBB2
:103290008000124951F82000012801D94FF001089F
:1032A00005E0FFE70F480068401C0E4908600E4823
:1032B000006808B14FF001084046BDE8F081000009
:1032C0006800002044000020340000203800002066
:1032D0005800002060000020480000204415002015
:1032E00030000020500000205400002070B5002461
:1032F00000263648006850B900BF502080F311887E
:10330000BFF34F8FBFF36F8F00BF00BFFEE7FFF724
:1033100065FC2E480068401E2C490860084600687D
:1033200000284FD12A48006800284BD024E02948C3
:10333000C068C46804F11800FFF7FAFB201DFFF70E
:10334000F7FB94F82C1001208840234909680843B2
:1033500021490860E16A01EB8101204A02EB81000A
:10336000211DFFF72FFC1E49E06A0968C96A8842DF
:1033700002D301201B4908601648006808B90120E3
:1033800000E000200028D2D00CB1FFF7E7FA164881
:10339000056865B100BFFFF705FF10B101201149B5
:1033A00008606D1E002DF6D100200F4908600D4801
:1033B000006838B1012630070C490860BFF34F8F11
:1033C000BFF36F8FFFF734FC304670BD68000020FC
:1033D00040000020F815002048000020441500207F
:1033E00030000020540000205000002004ED00E0D8
:1033F0009C340008991C0008000000000000000038
:103400008000000000000000000000007834000888
:10341000A51C0008FDFF0000000000008000000067
:10342000000000000000000084340008D11C0008E7
:10343000FDFF000000000000800000000000000010
:103440000000000090340008011D0008FDFF00008E
:1034500000000000800000000000000000000000EC
:103460000000000000000000010203040607080934
:1034700000000000010203046D795461736B303267
:10348000000000006D795461736B30330000000060
:103490006D795461736B30340000000064656661BF
:1034A000756C745461736B00C83400080000002010
:1034B00090000000B8220008583500089000002055
:1034C000A8250000C822000800000000000000003D
:1034D00000000000000000000000000010000000DC
:1034E000010000000024F4000000000000000000C3
:1034F00000000000000000000000000000000000CC
:1035000000000000000000000000000000000000BB
:1035100000000000000000000000000000000000AB
:10352000000000000000000000000000000000009B
:10353000000000000000000000000000000000008B
:10354000000000000000000000000000AAAAAAAAD3
:08355000000000000000000073
:04000005080000ED02
:00000001FF
